:020000040000fa
:080000007fff00200900000051
:020000040000fa
:1000080041f2180241f61c73c2f20002c2f2000368
:1000180010b59a4214d2013b9a1a00239208013271
:10002800920040f2880041f21801c0f2000018184e
:10003800c2f2000100685918043308609342f0d1f5
:1000480041f61c7342f26822c2f20003c2f20002b7
:100058009a4209d90321013ad21a8a43191d521822
:10006800002102c39342fcd100f002f810bdc04643
:1000780001b40248844601bc604700bfe91e002065
:020000040000fa
:1000880070b541f61c74c2f20004257805b170bd44
:1000980000f0ccfe0028fad000f0d0fec6b200f086
:1000a800f1fed8b9627863685ab3a2689a4209d94e
:1000b80042f24000c2f200008446591c63441e709c
:1000c8000b0061609a4206d100232261012263601d
:1000d800a3602270637000f0c7fed8e70123636055
:1000e80042f24003c2f200031e700023657041f61d
:1000f800fc62c2f20002d35cb342ecd0002363601e
:10010800e9e742f24001c2f200015a1c5818626045
:100118000670042aebd9092addd144f24d330a6866
:10012800c5f248039a4203d0512000f071fee5e77a
:100138004b68a3608b682373012363706373dde7e7
:10014800f8b5574642f2400a04234e464546de4675
:1001580041f61c74c2f2000a5344e0b5c2f200042e
:1001680040f20009984605e02378002b56d1637bbe
:10017800002b4dd000f028f9fff782ff237d002bdc
:10018800f2d02369a6691f1fe3699e425bd3226ae6
:100198003300964268d34cf20002cff67f729a1869
:1001a800ff2a58d944f20002cff67f72944663447e
:1001b800ff2b00d97ee041f6e52b41f63533c2f23c
:1001c800000bc2f200033000984703e0fff758ff26
:1001d80000f0faf800f0fcfc0028f7d1002597b1f0
:1001e80041f64073c2f200037119e818d84703e0da
:1001f800fff746ff00f0e8f800f0eafc0028f7d126
:100208004035af42ecd84b462375637b002bb1d108
:100218003cbc90469946a246ab46f8bd237ba02b32
:1002280051d0a12b67d0a52b00d184e0a62b00d1fb
:100238009de0a22b00d1b3e0a32b00d1a6e0522071
:1002480000f0e6fd54e04cf200023300cff67f7276
:100258009a18ff2aa6d841f6612b41f6b123c2f2bb
:10026800000bc2f20003aee7022000f0bdfc03e081
:10027800fff706ff00f0a8f800f0aafc0028f7d165
:1002880040f6ff73a2699a4267d9023000f0b8fcc1
:1002980003e0fff7f5fe00f097f800f099fc00285e
:1002a800f7d1a369e269934200d274e7226a9342c4
:1002b80000d370e741f6e91b41f63123c2f2000b87
:1002c800c2f200037fe75246514612685f3349681d
:1002d8009a43c03b99438b189a4203d28021090361
:1002e8008b423ed94b465120e361236200f090fdda
:1002f8004b4623703be75246ff2312689a4313008c
:10030800a261e2699a4224d8226a9a4221d900233a
:1003180040f2001141f640724046c2f20002c05855
:100328009a18043310608b42f4d1012350202375ae
:1003380000f06efddce753461b68ff22190091436d
:10034800204aa161134044f20002c0f280029342a5
:10035800ddd0512000f05cfdcae7012000f050fc20
:100368009be75020e261236200f052fdc0e7502075
:1003780000f04efd00f0aafd0500000a80b200f072
:1003880047fdff20284000f043fdb1e7502000f072
:100398003ffd00f035fd0028fbd000f089f8a7e705
:1003a8005346e2691d68236a1000991a00f032f872
:1003b800854203d0542000f02bfd99e7532000f02c
:1003c80027fd95e7007fffff42f20002c4f200021a
:1003d80013785bb2002b02db13789b0712d542f22d
:1003e8000003c4f200031a7852070cd59a79d20791
:1003f80008d59a68920605d4a52201211a739a791c
:100408000a439a7170479a689206fbd4a5221a7318
:10041800f8e7c046f0b54746ce4680b5224c81463f
:10042800a54448f2203488466e460025012040f253
:100438000017cef6b8542b000822010019405b08bb
:1004480001b16340013a002af7d1013508c6bd421f
:10045800f1d1fff7b9ff434613b301244a46ff26fb
:10046800124b4d4464429f1a6a1eff3a694613783c
:100478000132634033409b00cb58240a5c409542cc
:10048800f4d10135ff35fff79fff7b199845ebd86d
:10049800200040f204439d440cbc90469946f0bdb0
:1004a80001246442f4e7c046fcfbffff00ffffffa6
:1004b800bff34f8f4ef600530422cef20003c0f272
:1004c800fa52da60bff34f8fc046fde741f20003ee
:1004d80070b51c68631c08d041f2040300201d6835
:1004e80000f01afd84f30888284770bdf0b5022390
:1004f80046464f46d64642f2481442f24415c0b525
:1005080098460227c84ec2f20004c2f20005fff75f
:100518005bff00f0e1fb03062cd4074200d0b7e0f4
:1005280040f204094b46034200d1aae0ab789a4650
:10053800002b00d10ce12b7823b900f001fc002836
:1005480000d092e1a37aa52b00d17ce1a82b0bd196
:1005580000f0bcfceb78002b00d067e1000ac0b2c9
:1005680000f0d2fb0123eb70002302202b7000f077
:10057800effb08e000f0d2fb802000f0b5fb202262
:10058800e37a1343e372637a062b0ad89b00f35885
:100598009f4600f01dfb20b90122e37a6072934365
:1005a800e3726b78002bb2d11cbc90469946a246e8
:1005b800f0bd40f2010900f08ffb4b460342fad030
:1005c800fff776ffede72369e268991a1000fff755
:1005d80021ffa369984200d133e11022e37a134343
:1005e80001229343e37200236372dae7a37ae16995
:1005f800a72b00d0cfe04cf20003cff67f73cb18c7
:10060800ff2b00d8dae044f20003cff67f73cb1853
:10061800ff2b00d9cae0636959182033180042f249
:100628004813c2f200039c46604400f08ffabde014
:1006380000f0cefa0028b4d16369a269403363613f
:100648009342a9d26772ace7a069e368984205d3e0
:10065800431c2269ff33934200d8bce04cf20003ec
:10066800cff67f73c318ff2b00d8f9e044f20003dc
:10067800cff67f73c318ff2b00d89ae00523637267
:100688008fe7c30700d47ee7012000f02dfb7ae74f
:1006980040f201094b462b706b7000f049fb431e7a
:1006a800984100234a46a8702372e37a1a424bd035
:1006b800012000f04dfb66e76368226806339b0063
:1006c800511e9b1842f24812c2f20002944663443b
:1006d800216018702368002b36daa27a636811004b
:1006e80001336360b943a02900d102e1a72a00d0f1
:1006f800c3e0012b00d8fee05346237243f6ff7394
:10070800e269c0f280039a4200d808e140f2001181
:10071800a3698b4200d902e144f20011d318c0f258
:1007280080018b420dd94bf6ff71c0f280018a42dd
:1007380000d8f4e04cf20012c0f28002934200d9d3
:10074800ede0002327722360002000f001fb1ae788
:1007580000f0d0fa237a012baed05ab2002a00d189
:10076800a0e0022bf0d142f24811c2f200018c46ff
:1007780023685a1c634420331870a36922609a4284
:10078800e2d30122e37a1343e3725346636140f2f2
:1007980000232381d8e742f24813c2f200039c46a3
:1007a800606941182030604400f052f906236372f2
:1007b800f7e600f0f3f905236372f2e66369591866
:1007c8002033180042f24813c2f200039c466044ea
:1007d80000f07af9eae7022000f006fa01e0fff7f4
:1007e800f3fd00f0f5f90028f9d140f6ff73a2698e
:1007f8009a423ed8012000f003fa01e0fff7e4fd39
:1008080000f0e6f90028f9d1a069e368984200d21f
:1008180024e7431c2269ff339a4200d21ee700f006
:100828003bf905236372bce6001f0020c0b200f04c
:100838006bfa0023eb70002302202b7000f088fa7b
:10084800a1e6e37acce6e07a00f05efa3e22e37aab
:1008580002209343e37200232b7000f079fa92e6aa
:1008680000f05af9052363729be6032000f070fa42
:1008780089e6023000f0c4f9c2e700232372a02af7
:1008880029d0a22a3dd0a12a4ed0a72a00d135e7e7
:10089800a32a00d058e70122e37a1343e372032323
:1008a800637251e70323236003006033dbb2a07255
:1008b8006260082b0ad8a42820d0a52800d143e7d5
:1008c800a82800d140e7012323723de74246e37a96
:1008d8001343e372ece63f228020e37aa169934355
:1008e800e269e3728a180003824219d8e160226142
:1008f8002ae7012bc1d80323236025e74b466372ff
:1009080022e7e369e268934209d340f20011a26941
:100918008a4204d89b182269934200d811e7e37ae7
:1009280004221343e372c3e6a369e268934204d343
:100938005a1c2169ff328a4219d943f6ff72c0f264
:1009480080029342ebd944f200115a1cff32c0f2e4
:1009580080018a420bd94bf6ff71c0f280018b42ad
:10096800ddd94cf20013c0f280039a42d7d8012295
:10097800e37a1343e37201236372e5e641f200026e
:1009880041f2004102200023c4f20002c4f2000137
:1009980010760b7441f60001c4f200010862802150
:1009a8001386490413690b42fcd046f2200340f237
:1009b8000021c0f280031b685b009b0e9b020b4367
:1009c800536341f20002c903c4f2000213690b42e7
:1009d800fcd002238021138641f200024904c4f2ac
:1009e800000213690b42fcd041f6004240f20713a3
:1009f8000421c4f20002c0f20103136253681942d1
:100a0800fcd1cc234021d15041f60042cc20c4f285
:100a1800000213581942fcd0d823d15041f60042a5
:100a2800d8204021c4f2000213581942fcd0704764
:100a38007047c046bff35f8f62b6704745f2000348
:100a48000622c4f200135a60053a1a727047c0466b
:100a580045f2000230b50024c4f20012d4618024ab
:100a6800e4030b00214200d0d4610c00401a40344a
:100a780004381a1d15581d601300a242f9d145f219
:100a88000003c4f20013da6901201143014ad96155
:100a98001a8030bd04a5ffff45f200030022c4f20e
:100aa8000013da618022d203104200d0da6145f2e5
:100ab8000003c4f20013da690243da61014a012033
:100ac8001a80704702a5ffff4cf20003cff67f7330
:100ad800cb1830b50022c02b19d845f20004c4f257
:100ae8000014e2610c000b00401a403404381a1d4f
:100af80015581d601300a242f9d145f20003c4f253
:100b08000013da691143034ad9611a8001221000df
:100b180030bdc04604a5ffff4cf20002cff67f723d
:100b2800811840f200120300002091420ad845f2d1
:100b38000002c4f20012d061d06903430120d361de
:100b4800014b13807047c04602a5ffff44f2000323
:100b5800cff67f73cb1830b50022c02b19d845f2d9
:100b68000004c4f20014e2610c000b00401a403487
:100b780004381a1d15581d601300a242f9d145f218
:100b88000003c4f20013da691143034ad9611a80d9
:100b98000122100030bdc04604a5ffff44f2000248
:100ba800cff67f72811840f20012030000209142b4
:100bb8000ad845f20002c4f20012d061d06903439a
:100bc8000120d361014b13807047c04602a5ffff87
:100bd80045f20003c4f20013188b01238008584023
:100be800012318407047c04645f20002c4f20012c3
:100bf800538c03434af20050034353847047c04662
:100c080045f20002c4f20012138c03434af200506a
:100c1800034313847047c04640f200430022012179
:100c2800c4f200031a819a790a439a7103229978c7
:100c38000a40022a05d0022201219a709a791142ab
:100c4800fcd0704743f20023c022c4f20003120410
:100c580010b556211a6105225a5401315a542439c3
:100c6800363299549020002240f20014da661c5063
:100c78008f383e3c185501341855c730bd3c1c54bc
:100c880017381954b9315a5080315a5010bdc046de
:100c980040f600420123c4f200221360d369002bfe
:100ca800fcd11033c0f21003136040f60042c4f2c6
:100cb8000022d369002bfcd10221013393607f33da
:100cc800536213680b43136040f60042c4f20022db
:100cd800d369002bfcd1704740f60043c4f20023cf
:100ce800187ec0b27047c04640f60043c4f20023e5
:100cf8001876704740f60042c4f20022d369002bf0
:100d0800fcd1906ac0b2704740f60042c4f200229b
:100d18009062d369002bfcd17047c04640f600436f
:100d280040f24320c4f200235a8b58831040704786
:100d380040f60043c4f20023588b0007c00f7047e9
:100d480040f60043c4f20023588b4007c00f704799
:100d580058b940f60043c4f200235a6816491140b6
:100d6800c02292020a435a60704701280fd0022815
:100d780017d00328f8d140f60043c4f200235a687c
:100d88000e491140802292020a435a60ece740f66d
:100d98000043e022c4f200235968d2020a435a6091
:100da800e2e740f60043c022c4f2002359689202e9
:100db8000a435a60d8e7c046fffff8fffffffcff71
:100dc80041f6000240f20413c4f20022c4f21013e8
:100dd80013600a4b9381c0239b025360d369002b95
:100de800fcd1022113680b43136041f60002c4f2e0
:100df8000022d369002bfcd17047c0462bf6ffffb9
:100e080041f60003c4f20023187e8007c00f704724
:100e180041f600020121c4f20022137e1942fcd0df
:100e28004ff6ff73034093627047c04641f60003d4
:100e3800c4f20023187e4007c00f704741f6000334
:100e4800c4f20023986a70474ef210030022cef2d3
:100e580000031a609a6043f6ff52c0f249025a60d2
:100e680004221a607047c0464ef210030120002287
:100e7800cef200031968814319609a601a68024328
:100e88001a6070474ef21003cef200031868c003d0
:100e9800c00f704710b5fff7d1fdfff7d3fe00f084
:100ea80019f880b1fff7b8fefff768fdfff7c6fd38
:100eb800fff7eefefff7bcfdfff7c6fffff780ff69
:100ec800fff7b8fd10bdfff701fbebe740f200307c
:100ed8007047c04641f2000344f24d32c2f20003ab
:100ee8001968c5f24802914209d043f20023a022b2
:100ef8000120c4f200039b581b0a984370475a68a4
:100f08008a42f2d199689142efd1da688a42ecd1eb
:100f1800002201201a60f1e743f200020023562163
:100f2800c4f2000213615354013153541c39535411
:100f380043f200225531c4f2000253503231535467
:100f48000131535405315354173953547047c0462f
:100f580010b50020fff79efffff7f2f8fff7c6fa7b
:100f6800fae7c0464d4348503a150020e0150020e6
:100f7800841500205e1500204a1500202a1500203f
:040f8800c815002068
:00000001FF
