:020000040000fa
:08000000ffff002009000000d1
:020000040000fa
:1000080041f2180241f6d463c2f20002c2f20003c0
:1000180010b59a4214d2013b9a1a00239208013271
:10002800920040f2880041f21801c0f2000018184e
:10003800c2f2000100685918043308609342f0d1f5
:1000480041f6d46342f22022c2f20003c2f2000257
:100058009a4209d90321013ad21a8a43191d521822
:10006800002102c39342fcd100f002f810bdc04643
:1000780001b40248844601bc604700bfa11e0020ad
:020000040000fa
:1000880070b541f6d464c2f20004257805b170bd9c
:1000980000f0aafe0028fad000f0aefec6b200f0ca
:1000a800cffed8b9627863685ab3a2689a4209d970
:1000b80041f6f870c2f200008446591c63441e7071
:1000c8000b0061609a4206d100232261012263601d
:1000d800a3602270637000f0a5fed8e70123636077
:1000e80041f6f873c2f200031e700023657041f6f2
:1000f800b462c2f20002d35cb342ecd00023636066
:10010800e9e741f6f871c2f200015a1c581862601a
:100118000670042aebd9092addd144f24d330a6866
:10012800c5f248039a4203d0512000f04ffee5e79c
:100138004b68a3608b682373012363706373dde7e7
:10014800f8b5574641f6f87a04234e464546de464a
:1001580041f6d464c2f2000a5344e0b5c2f2000486
:1001680040f20009984605e02378002b56d1637bbe
:10017800002b4dd000f024f9fff782ff237d002be0
:10018800f2d02369a6691f1fe3699e425bd3226ae6
:100198003300964268d34cf20002cff67f729a1869
:1001a800ff2a58d944f20002cff67f72944663447e
:1001b800ff2b00d97ae041f6b52b41f60533c2f2a0
:1001c800000bc2f200033000984703e0fff758ff26
:1001d80000f0f6f800f0e2fc0028f7d1002597b10e
:1001e80041f6f863c2f200037119e818d84703e032
:1001f800fff746ff00f0e4f800f0d0fc0028f7d144
:100208004035af42ecd84b462375637b002bb1d108
:100218003cbc90469946a246ab46f8bd237ba02b32
:100228004dd0a12b63d0a52b00d180e0a62b00d107
:1002380099e0a22b00d1afe0a32b00d1a2e052207d
:1002480000f0c4fd50e04cf200023300cff67f729c
:100258009a18ff2aa6d841f6352b41f68523c2f213
:10026800000bc2f20003aee7022000f0a3fc03e09b
:10027800fff706ff00f0a4f800f090fc0028f7d183
:1002880040f6ff72a369934263d844f200024af22f
:100298000150c4f20012118c01431184e2699342a7
:1002a80000d27fe7226a934200d374e741f6bd1b70
:1002b80041f60523c2f2000bc2f2000383e752465f
:1002c800514612685f3349689a43c03b99438b187b
:1002d8009a4203d2802109038b423ed94b465120d2
:1002e800e361236200f072fd4b4623703fe75246fc
:1002f800ff2312689a431300a261e2699a4224d844
:10030800226a9a4221d9002340f2001141f6f8628c
:100318004046c2f20002c0589a18043310608b425b
:10032800f4d101235020237500f050fddce753463b
:100338001b68ff2219009143204aa161134044f22f
:100348000002c0f280029342ddd0512000f03efd51
:10035800cae7e2699342a5d21de75020e261236211
:1003680000f034fdc0e7502000f030fd00f08efdb5
:100378000500000a80b200f029fdff20284000f0a7
:1003880025fdb1e7502000f021fd00f017fd002801
:10039800fbd000f05df8a7e75346e2691d68236ac1
:1003a8001000991a00f032f8854203d0542000f06a
:1003b8000dfd99e7532000f009fd95e7007fffff49
:1003c80042f20002c4f2000213785bb2002b02db97
:1003d80013789b0712d542f20003c4f200031a787f
:1003e80052070cd59a79d20708d59a68920605d48f
:1003f800a52201211a739a790a439a7170479a685b
:100408009206fbd4a5221a73f8e7c046012370b5fb
:100418000d0082b006005b4201212120019300f00b
:10042800d7fb6db100243019013401ab019a40f2b9
:100438000011ff3400f0cafafff7c2ffa542f2d854
:100448000221212000f0c4fb019802b070bdc04613
:10045800bff34f8f4ef600530422cef20003c0f2d2
:10046800fa52da60bff34f8fc046fde741f200034e
:1004780070b51c68631c08d041f2040300201d6895
:1004880000f02afd84f30888284770bdf0b50223e0
:1004980046464f46d64642f2001442f2fc05c0b525
:1004a80098460227c94ec2f20004c2f20005fff7bf
:1004b80087ff00f0effb03062cd4074200d0b7e01b
:1004c80040f204094b46034200d1aae0ab789a46b1
:1004d800002b00d10ce12b7823b900f00ffc002889
:1004e80000d087e1a37aa52b00d171e1a82b0bd10d
:1004f80000f0ccfceb78002b00d05ae1000ac0b227
:1005080000f0e0fb0123eb70002302202b7000f0c9
:10051800fdfb08e000f0e0fb802000f0c3fb202298
:10052800e37a1343e372637a062b0ad89b00f358e5
:100538009f4600f033fb20b90122e37a60729343af
:10054800e3726b78002bb2d11cbc90469946a24648
:10055800f0bd40f2010900f09dfb4b460342fad082
:10056800fff776ffede72369e268991a1000fff7b5
:100578004dffa369984200d126e11022e37a134384
:1005880001229343e37200236372dae7a37ae169f5
:10059800a72b00d0cfe04cf20003cff67f73cb1827
:1005a800ff2b00d8dae044f20003cff67f73cb18b4
:1005b800ff2b00d9cae0636959182033180042f2aa
:1005c8000013c2f200039c46604400f0a7fabde0a5
:1005d80000f0e4fa0028b4d16369a269403363618a
:1005e8009342a9d26772ace7a069e368984205d341
:1005f800431c2269ff33934200d8bce04cf200034d
:10060800cff67f73c318ff2b00d8eee044f2000347
:10061800cff67f73c318ff2b00d89ae005236372c7
:100628008fe7c30700d47ee7012000f03bfb7ae7a1
:1006380040f201094b462b706b7000f057fb431ecc
:10064800984100234a46a8702372e37a1a424bd095
:10065800012000f05bfb66e76368226806339b00b5
:10066800511e9b1842f20012c2f2000294466344e3
:10067800216018702368002b36daa27a63681100ab
:1006880001336360b943a02900d100e1a72a00d053
:10069800c1e0012b00d8fce05346237243f6ff73f8
:1006a800e269c0f280039a4200d806e140f20011e4
:1006b800a3698b4200d900e144f20011d318c0f2bb
:1006c80080018b420dd94bf6ff71c0f280018a423e
:1006d80000d8f2e04cf20012c0f28002934200d936
:1006e800ebe0002327722360002000f00ffb1ae7dd
:1006f80000f0defa237a012baed05ab2002a00d1dc
:100708009ee0022bf0d142f20011c2f200018c46a9
:1007180023685a1c634420331870a36922609a42e4
:10072800e2d30122e37a1343e3725346636140f252
:1007380000232381d8e742f20013c2f200039c464b
:10074800606941182030604400f06cf90623637238
:10075800f7e600f00bfa05236372f2e663695918ad
:100768002033180042f20013c2f200039c46604492
:1007780000f094f9eae7022000f01cfa01e0fff724
:100788001ffe00f00bfa0028f9d140f6ff73a069ac
:10079800984233d9e368984200d22fe7431c226974
:1007a800ff339a4200d229e700f060f9052363720b
:1007b800c7e6c0b200f086fa0023eb7000230220df
:1007c8002b7000f0a3faaee6e37ad9e6b81e002053
:1007d800e07a00f077fa3e22e37a02209343e3724c
:1007e80000232b7000f092fa9de600f07ff90523b4
:1007f8006372a6e6032000f089fa94e644f2000347
:100808004af20151c4f200131a8c0a431a84e368ad
:100818009842c3d2fae600232372a02a29d0a22a3a
:100828003dd0a12a4ed0a72a00d137e7a32a00d06d
:100838005ae70122e37a1343e3720323637253e70f
:100848000323236003006033dbb2a0726260082bcd
:100858000ad8a42820d0a52800d145e7a82800d187
:1008680042e7012323723fe74246e37a1343e372e8
:10087800eee63f228020e37aa1699343e269e372be
:100888008a180003824219d8e16022612ce7012b03
:10089800c1d80323236027e74b46637224e7e36943
:1008a800e268934209d340f20011a2698a4204d84f
:1008b8009b182269934200d813e7e37a0422134372
:1008c800e372c5e6a369e268934204d35a1c21691e
:1008d800ff328a4219d943f6ff72c0f2800293426e
:1008e800ebd944f200115a1cff32c0f280018a424f
:1008f8000bd94bf6ff71c0f280018b42ddd94cf267
:100908000013c0f280039a42d7d80122e37a134336
:10091800e37201236372e7e641f2000241f200410b
:1009280002200023c4f20002c4f2000110760b7406
:1009380041f60001c4f200010862802113864904cf
:1009480013690b42fcd046f2200340f20021c0f2aa
:1009580080031b685b009b0e9b020b43536341f2b1
:100968000002c903c4f2000213690b42fcd002233f
:100978008021138641f200024904c4f2000213697f
:100988000b42fcd041f6004240f207130421c4f2a6
:100998000002c0f20103136253681942fcd1cc2350
:1009a8004021d15041f60042cc20c4f20002135835
:1009b8001942fcd0d823d15041f60042d82040211a
:1009c800c4f2000213581942fcd0704710b599b10f
:1009d80093b142f20004c4f200146060a160e260c6
:1009e80062780120d2b262700422227061780842d3
:1009f800fcd061784a0701d5002010bde2680120cb
:100a08001a60fae77047c046bff35f8f62b6704757
:100a180044f200030622c4f200135a60053a1a721f
:100a28007047c04644f2000230b50024c4f20012f8
:100a3800d4618024e4030b00214200d0d4610c006f
:100a4800401a403404381a1d15581d601300a2427c
:100a5800f9d144f20003c4f20013da69012011430a
:100a6800014ad9611a8030bd04a5ffff44f2000392
:100a78000022c4f20013da618022d203104200d0af
:100a8800da6144f20003c4f20013da690243da615e
:100a9800014a01201a80704702a5ffff4cf20003ab
:100aa800cff67f73cb1830b50022c02b19d844f28b
:100ab8000004c4f20014e2610c000b00401a403438
:100ac80004381a1d15581d601300a242f9d144f2ca
:100ad8000003c4f20013da691143034ad9611a808a
:100ae8000122100030bdc04604a5ffff4cf20002f1
:100af800cff67f72811840f2001203000020914265
:100b080009d89201c4f20012d061d06903430120d0
:100b1800d361014b1380704702a5ffff44f2000325
:100b2800cff67f73cb1830b50022c02b19d844f20a
:100b38000004c4f20014e2610c000b00401a4034b7
:100b480004381a1d15581d601300a242f9d144f249
:100b58000003c4f20013da691143034ad9611a8009
:100b68000122100030bdc04604a5ffff44f2000278
:100b7800cff67f72811840f20012030000209142e4
:100b880009d89201c4f20012d061d0690343012050
:100b9800d361014b1380704702a5ffff44f20003a5
:100ba800c4f20013188b0123800858400123184011
:100bb8007047c04644f20002c4f20012538c03434b
:100bc8004af20050034353847047c0467047c046fa
:100bd8004ff6ff738022034009040b43d2051360cc
:100be8007047c04640f2004300220121c4f20003ce
:100bf8001a819a790a439a71032299780a40022a3b
:100c080005d0022201219a709a791142fcd07047ce
:100c180043f20003c022c4f2000312041a615621f1
:100c2800052240f200105a5401315a542e321c3910
:100c38005a54553158508f393e3819540130195487
:100c4800c731bd38585417395a54704740f60042d6
:100c58000123c4f200221360d369002bfcd11033a6
:100c6800c0f21003136040f60042c4f20022d369b8
:100c7800002bfcd10221013393607f335362136848
:100c88000b43136040f60042c4f20022d369002be4
:100c9800fcd1704740f60043c4f20023187ec0b26e
:100ca8007047c04640f60043c4f2002318767047e8
:100cb80040f60042c4f20022d369002bfcd1906aae
:100cc800c0b2704740f60042c4f200229062d36975
:100cd800002bfcd17047c04640f6004340f2432049
:100ce800c4f200235a8b58831040704740f60043e3
:100cf800c4f20023588b0007c00f704740f600432a
:100d0800c4f20023588b4007c00f704758b940f60b
:100d18000043c4f200235a6816491140c0229202c7
:100d28000a435a60704701280fd0022817d00328b9
:100d3800f8d140f60043c4f200235a680e49114026
:100d4800802292020a435a60ece740f60043e02210
:100d5800c4f200235968d2020a435a60e2e740f617
:100d68000043c022c4f20023596892020a435a6021
:100d7800d8e7c046fffff8fffffffcff41f600027f
:100d880040f20413c4f20022c4f2101313600a4b99
:100d98009381c0239b025360d369002bfcd10221ad
:100da80013680b43136041f60002c4f20022d369b2
:100db800002bfcd17047c0462bf6ffff41f600031d
:100dc800c4f20023187e8007c00f704741f6000266
:100dd8000121c4f20022137e1942fcd04ff6ff73a2
:100de800034093627047c04641f60003c4f20023f3
:100df800187e4007c00f704741f60003c4f2002375
:100e0800986a70474ef210030022cef200031a606f
:100e18009a6043f6ff52c0f249025a6004221a60ef
:100e28007047c0464ef2100301200022cef20003a4
:100e38001968814319609a601a6802431a607047fa
:100e48004ef21003cef200031868c003c00f7047bb
:100e580010b5fff7ddfdfff7dbfe00f01bf890b1e2
:100e6800fff7c0fefff758fdfff7f0fefff7d0fdd4
:100e7800fff7c8fdfff7c6fffff7a8fefff77effe5
:100e8800fff7c2fd10bdfff7f1fae9e740f20030c5
:100e98007047c04641f2000344f24d32c2f20003eb
:100ea8001968c5f24802914209d043f20003a02212
:100eb8000120c4f200039b581b0a984370475a68e4
:100ec8008a42f2d199689142efd1da688a42ecd12c
:100ed800002201201a60f1e743f2000300225621a4
:100ee800c4f200031a615a5401315a541c395a5435
:100ef80055315a5032315a5401315a5405315a54e5
:100f080017395a547047c04610b50020fff7a0ffa4
:100f1800fff716f9fff7bafafae7c0464d4348500b
:100f2800da1400208015002024150020fe1400206b
:0c0f3800ea140020ca14002068150020f4
:020000040000fa
:0200000400807a
:0440000076438fb0c4
:020000040000fa
:0200000400807a
:04400400bbf0ffff0f
:020000040000fa
:0200000400807a
:04c004000010e8ff41
:020000040000fa
:0200000400807a
:04c04000ffffffff00
:020000040000fa
:0200000400807a
:04c04400fffffffffc
:020000040000fa
:0200000400807a
:04c04800fffffffff8
:020000040000fa
:0200000400807a
:04c04c00fffffffff4
:00000001FF
